{
  "contractName": "Election",
  "abi": [
    {
      "constant": true,
      "inputs": [],
      "name": "count",
      "outputs": [
        {
          "name": "",
          "type": "uint256"
        }
      ],
      "payable": false,
      "stateMutability": "view",
      "type": "function"
    },
    {
      "constant": true,
      "inputs": [
        {
          "name": "",
          "type": "uint256"
        }
      ],
      "name": "candidates",
      "outputs": [
        {
          "name": "id",
          "type": "uint256"
        },
        {
          "name": "name",
          "type": "string"
        },
        {
          "name": "count",
          "type": "uint256"
        }
      ],
      "payable": false,
      "stateMutability": "view",
      "type": "function"
    },
    {
      "inputs": [],
      "payable": false,
      "stateMutability": "nonpayable",
      "type": "constructor"
    }
  ],
  "bytecode": "0x608060405234801561001057600080fd5b506100556040518060400160405280600b81526020017f43616e64696461746520310000000000000000000000000000000000000000008152506100e260201b60201c565b6100996040518060400160405280600b81526020017f43616e64696461746520320000000000000000000000000000000000000000008152506100e260201b60201c565b6100dd6040518060400160405280600b81526020017f43616e64696461746520330000000000000000000000000000000000000000008152506100e260201b60201c565b610202565b600160008154809291906001019190505550604051806060016040528060015481526020018281526020016000815250600080600154815260200190815260200160002060008201518160000155602082015181600101908051906020019061014c92919061015d565b506040820151816002015590505050565b828054600181600116156101000203166002900490600052602060002090601f016020900481019282601f1061019e57805160ff19168380011785556101cc565b828001600101855582156101cc579182015b828111156101cb5782518255916020019190600101906101b0565b5b5090506101d991906101dd565b5090565b6101ff91905b808211156101fb5760008160009055506001016101e3565b5090565b90565b610202806102116000396000f3fe608060405234801561001057600080fd5b50600436106100365760003560e01c806306661abd1461003b5780633477ee2e14610059575b600080fd5b61004361010e565b6040518082815260200191505060405180910390f35b6100856004803603602081101561006f57600080fd5b8101908080359060200190929190505050610114565b6040518084815260200180602001838152602001828103825284818151815260200191508051906020019080838360005b838110156100d15780820151818401526020810190506100b6565b50505050905090810190601f1680156100fe5780820380516001836020036101000a031916815260200191505b5094505050505060405180910390f35b60015481565b6000602052806000526040600020600091509050806000015490806001018054600181600116156101000203166002900480601f0160208091040260200160405190810160405280929190818152602001828054600181600116156101000203166002900480156101c65780601f1061019b576101008083540402835291602001916101c6565b820191906000526020600020905b8154815290600101906020018083116101a957829003601f168201915b505050505090806002015490508356fea165627a7a723058209c0984c5a98a295cbf350aa5248679ede7cec475cb5f3f7827c7f2822a373e780029",
  "source": "pragma solidity ^0.5.8;\r\n\r\ncontract Election {\r\n    //Model a candidate\r\n    struct Candidate {\r\n        uint id;\r\n        string name;\r\n        uint count;\r\n    }\r\n    //Store candidate\r\n    //Fetch candidate\r\n    //Store candidate count\r\n    mapping(uint => Candidate) public candidates;\r\n    //count\r\n    uint public count;\r\n    //Contructor\r\n    constructor() public {\r\n        addCandidate(\"Candidate 1\");\r\n        addCandidate(\"Candidate 2\");\r\n        addCandidate(\"Candidate 3\");\r\n    }\r\n    function addCandidate (string memory _name) private {\r\n        count ++;\r\n        candidates[count] = Candidate(count, _name, 0);\r\n    }\r\n}",
  "sourcePath": "C:/Users/Admin/Desktop/election/contracts/Election.sol",
  "compiler": {
    "name": "solc",
    "version": "0.5.8+commit.23d335f2.Emscripten.clang"
  },
  "schemaVersion": "3.0.16",
  "updatedAt": "2019-10-09T14:04:59.964Z",
  "devdoc": {
    "methods": {}
  },
  "userdoc": {
    "methods": {}
  }
}