{
  "contractName": "Election",
  "abi": [
    {
      "constant": true,
      "inputs": [],
      "name": "candidatesCount",
      "outputs": [
        {
          "name": "",
          "type": "uint256"
        }
      ],
      "payable": false,
      "stateMutability": "view",
      "type": "function"
    },
    {
      "constant": true,
      "inputs": [
        {
          "name": "",
          "type": "uint256"
        }
      ],
      "name": "candidates",
      "outputs": [
        {
          "name": "id",
          "type": "uint256"
        },
        {
          "name": "name",
          "type": "string"
        },
        {
          "name": "voteCount",
          "type": "uint256"
        }
      ],
      "payable": false,
      "stateMutability": "view",
      "type": "function"
    },
    {
      "constant": true,
      "inputs": [
        {
          "name": "",
          "type": "address"
        }
      ],
      "name": "voters",
      "outputs": [
        {
          "name": "",
          "type": "bool"
        }
      ],
      "payable": false,
      "stateMutability": "view",
      "type": "function"
    },
    {
      "inputs": [],
      "payable": false,
      "stateMutability": "nonpayable",
      "type": "constructor"
    },
    {
      "anonymous": false,
      "inputs": [],
      "name": "votedEvent",
      "type": "event"
    },
    {
      "constant": false,
      "inputs": [
        {
          "name": "_candidateId",
          "type": "uint256"
        }
      ],
      "name": "vote",
      "outputs": [],
      "payable": false,
      "stateMutability": "nonpayable",
      "type": "function"
    },
    {
      "constant": true,
      "inputs": [],
      "name": "getAccount",
      "outputs": [
        {
          "name": "",
          "type": "address"
        }
      ],
      "payable": false,
      "stateMutability": "view",
      "type": "function"
    }
  ],
  "bytecode": "0x608060405234801561001057600080fd5b506100556040518060400160405280601581526020017f4e677579e1bb856e205669e1bb8774205175c3a26e00000000000000000000008152506100e260201b60201c565b6100996040518060400160405280601481526020017f4e677579e1bb856e205475e1baa56e204c6f6e670000000000000000000000008152506100e260201b60201c565b6100dd6040518060400160405280601c81526020017f4e677579e1bb856e205472e1baa76e205472756e67204b68e1baa369000000008152506100e260201b60201c565b610203565b60026000815480929190600101919050555060405180606001604052806002548152602001828152602001600081525060016000600254815260200190815260200160002060008201518160000155602082015181600101908051906020019061014d92919061015e565b506040820151816002015590505050565b828054600181600116156101000203166002900490600052602060002090601f016020900481019282601f1061019f57805160ff19168380011785556101cd565b828001600101855582156101cd579182015b828111156101cc5782518255916020019190600101906101b1565b5b5090506101da91906101de565b5090565b61020091905b808211156101fc5760008160009055506001016101e4565b5090565b90565b61043c806102126000396000f3fe608060405234801561001057600080fd5b50600436106100575760003560e01c80630121b93f1461005c5780632d35a8a21461008a5780633477ee2e146100a8578063a3ec138d1461015d578063db613e81146101b9575b600080fd5b6100886004803603602081101561007257600080fd5b8101908080359060200190929190505050610203565b005b610092610320565b6040518082815260200191505060405180910390f35b6100d4600480360360208110156100be57600080fd5b8101908080359060200190929190505050610326565b6040518084815260200180602001838152602001828103825284818151815260200191508051906020019080838360005b83811015610120578082015181840152602081019050610105565b50505050905090810190601f16801561014d5780820380516001836020036101000a031916815260200191505b5094505050505060405180910390f35b61019f6004803603602081101561017357600080fd5b81019080803573ffffffffffffffffffffffffffffffffffffffff1690602001909291905050506103e8565b604051808215151515815260200191505060405180910390f35b6101c1610408565b604051808273ffffffffffffffffffffffffffffffffffffffff1673ffffffffffffffffffffffffffffffffffffffff16815260200191505060405180910390f35b6000803373ffffffffffffffffffffffffffffffffffffffff1673ffffffffffffffffffffffffffffffffffffffff16815260200190815260200160002060009054906101000a900460ff161561025957600080fd5b60008111801561026b57506002548111155b61027457600080fd5b60016000803373ffffffffffffffffffffffffffffffffffffffff1673ffffffffffffffffffffffffffffffffffffffff16815260200190815260200160002060006101000a81548160ff02191690831515021790555060016000828152602001908152602001600020600201600081548092919060010191905055507f5b8aad23fe8c713f16b78d5e4e5b8938224c4810fe5c33f7f4d855d1ebe19c3060405160405180910390a150565b60025481565b6001602052806000526040600020600091509050806000015490806001018054600181600116156101000203166002900480601f0160208091040260200160405190810160405280929190818152602001828054600181600116156101000203166002900480156103d85780601f106103ad576101008083540402835291602001916103d8565b820191906000526020600020905b8154815290600101906020018083116103bb57829003601f168201915b5050505050908060020154905083565b60006020528060005260406000206000915054906101000a900460ff1681565b60003390509056fea165627a7a72305820ac89bdd556d43cd7c11637ed8b815ba9737c00d5e8c2f6a8afd35577427f8bc80029",
  "source": "pragma solidity ^0.5.8;\r\n\r\ncontract Election {\r\n    // Model a Candidate\r\n    struct Candidate {\r\n        uint id;\r\n        string name;\r\n        uint voteCount;\r\n    }\r\n\r\n    // Store accounts that have voted\r\n    mapping(address => bool) public voters;\r\n    // Store Candidates\r\n    // Fetch Candidate\r\n    mapping(uint => Candidate) public candidates;\r\n    // Store Candidates Count\r\n    uint public candidatesCount;\r\n\r\n    // voted event\r\n    //event votedEvent (uint indexed _candidateId);\r\n    event votedEvent ();\r\n\r\n    constructor () public {\r\n        addCandidate(\"Nguyễn Việt Quân\");\r\n        addCandidate(\"Nguyễn Tuấn Long\");\r\n        addCandidate(\"Nguyễn Trần Trung Khải\");\r\n    }\r\n\r\n    function addCandidate (string memory _name) private {\r\n        candidatesCount ++;\r\n        candidates[candidatesCount] = Candidate(candidatesCount, _name, 0);\r\n    }\r\n\r\n    function vote (uint _candidateId) public {\r\n        // require that they haven't voted before\r\n        require(!voters[msg.sender]); // votes[msg.sender] = false as default\r\n\r\n        // require a valid candidate\r\n        require(_candidateId > 0 && _candidateId <= candidatesCount);\r\n        /*in case, the require is false, then throw exception, and gas is use only to this required, not all the vote function */\r\n\r\n        // record that voter has voted\r\n        voters[msg.sender] = true;\r\n\r\n        // update candidate vote Count\r\n        candidates[_candidateId].voteCount ++;\r\n\r\n        // trigger voted event\r\n        //emit votedEvent(_candidateId);\r\n        emit votedEvent(); // still run\r\n    }\r\n\r\n    //get account\r\n    function getAccount() public view returns (address){\r\n        return msg.sender;\r\n    }\r\n}",
  "sourcePath": "C:/Users/Admin/Desktop/election/contracts/Election.sol",
  "compiler": {
    "name": "solc",
    "version": "0.5.8+commit.23d335f2.Emscripten.clang"
  },
  "schemaVersion": "3.0.16",
  "updatedAt": "2019-10-13T16:23:10.136Z",
  "devdoc": {
    "methods": {}
  },
  "userdoc": {
    "methods": {}
  }
}